{
  "_format": "hh-sol-artifact-1",
  "contractName": "Escrow",
  "sourceName": "contracts/Escrow.sol",
  "abi": [
    {
      "inputs": [
        {
          "internalType": "address",
          "name": "_nftAddress",
          "type": "address"
        },
        {
          "internalType": "address payable",
          "name": "_seller",
          "type": "address"
        },
        {
          "internalType": "address",
          "name": "_inspector",
          "type": "address"
        },
        {
          "internalType": "address",
          "name": "_lender",
          "type": "address"
        }
      ],
      "stateMutability": "nonpayable",
      "type": "constructor"
    },
    {
      "inputs": [
        {
          "internalType": "uint256",
          "name": "",
          "type": "uint256"
        }
      ],
      "name": "buyer",
      "outputs": [
        {
          "internalType": "address",
          "name": "",
          "type": "address"
        }
      ],
      "stateMutability": "view",
      "type": "function"
    },
    {
      "inputs": [
        {
          "internalType": "uint256",
          "name": "",
          "type": "uint256"
        }
      ],
      "name": "escrowAmount",
      "outputs": [
        {
          "internalType": "uint256",
          "name": "",
          "type": "uint256"
        }
      ],
      "stateMutability": "view",
      "type": "function"
    },
    {
      "inputs": [],
      "name": "inspector",
      "outputs": [
        {
          "internalType": "address",
          "name": "",
          "type": "address"
        }
      ],
      "stateMutability": "view",
      "type": "function"
    },
    {
      "inputs": [
        {
          "internalType": "uint256",
          "name": "",
          "type": "uint256"
        }
      ],
      "name": "isListed",
      "outputs": [
        {
          "internalType": "bool",
          "name": "",
          "type": "bool"
        }
      ],
      "stateMutability": "view",
      "type": "function"
    },
    {
      "inputs": [],
      "name": "lender",
      "outputs": [
        {
          "internalType": "address",
          "name": "",
          "type": "address"
        }
      ],
      "stateMutability": "view",
      "type": "function"
    },
    {
      "inputs": [
        {
          "internalType": "uint256",
          "name": "_nftID",
          "type": "uint256"
        },
        {
          "internalType": "uint256",
          "name": "_purchasePrice",
          "type": "uint256"
        },
        {
          "internalType": "address",
          "name": "_buyer",
          "type": "address"
        },
        {
          "internalType": "uint256",
          "name": "_escrowAmount",
          "type": "uint256"
        }
      ],
      "name": "list",
      "outputs": [],
      "stateMutability": "nonpayable",
      "type": "function"
    },
    {
      "inputs": [],
      "name": "nftAddress",
      "outputs": [
        {
          "internalType": "address",
          "name": "",
          "type": "address"
        }
      ],
      "stateMutability": "view",
      "type": "function"
    },
    {
      "inputs": [
        {
          "internalType": "uint256",
          "name": "",
          "type": "uint256"
        }
      ],
      "name": "purchasePrice",
      "outputs": [
        {
          "internalType": "uint256",
          "name": "",
          "type": "uint256"
        }
      ],
      "stateMutability": "view",
      "type": "function"
    },
    {
      "inputs": [],
      "name": "seller",
      "outputs": [
        {
          "internalType": "address payable",
          "name": "",
          "type": "address"
        }
      ],
      "stateMutability": "view",
      "type": "function"
    }
  ],
  "bytecode": "0x608060405234801561001057600080fd5b506040516108ff3803806108ff833981810160405281019061003291906101df565b806000806101000a81548173ffffffffffffffffffffffffffffffffffffffff021916908373ffffffffffffffffffffffffffffffffffffffff16021790555082600360006101000a81548173ffffffffffffffffffffffffffffffffffffffff021916908373ffffffffffffffffffffffffffffffffffffffff16021790555081600160006101000a81548173ffffffffffffffffffffffffffffffffffffffff021916908373ffffffffffffffffffffffffffffffffffffffff16021790555083600260006101000a81548173ffffffffffffffffffffffffffffffffffffffff021916908373ffffffffffffffffffffffffffffffffffffffff16021790555050505050610246565b600080fd5b600073ffffffffffffffffffffffffffffffffffffffff82169050919050565b600061016e82610143565b9050919050565b61017e81610163565b811461018957600080fd5b50565b60008151905061019b81610175565b92915050565b60006101ac82610143565b9050919050565b6101bc816101a1565b81146101c757600080fd5b50565b6000815190506101d9816101b3565b92915050565b600080600080608085870312156101f9576101f861013e565b5b60006102078782880161018c565b9450506020610218878288016101ca565b93505060406102298782880161018c565b925050606061023a8782880161018c565b91505092959194509250565b6106aa806102556000396000f3fe608060405234801561001057600080fd5b50600436106100935760003560e01c80635d19e56c116100665780635d19e56c1461012057806377fbc4ae14610150578063bcead63e14610180578063ed2cee9e1461019e578063fcce4883146101bc57610093565b806308551a53146100985780631502b23b146100b65780634dd4acaf146100d25780635bf8633a14610102575b600080fd5b6100a06101ec565b6040516100ad919061048b565b60405180910390f35b6100d060048036038101906100cb919061051f565b610212565b005b6100ec60048036038101906100e79190610586565b610357565b6040516100f991906105c2565b60405180910390f35b61010a61038a565b60405161011791906105c2565b60405180910390f35b61013a60048036038101906101359190610586565b6103b0565b60405161014791906105ec565b60405180910390f35b61016a60048036038101906101659190610586565b6103c8565b60405161017791906105ec565b60405180910390f35b6101886103e0565b60405161019591906105c2565b60405180910390f35b6101a6610404565b6040516101b391906105c2565b60405180910390f35b6101d660048036038101906101d19190610586565b61042a565b6040516101e39190610622565b60405180910390f35b600360009054906101000a900473ffffffffffffffffffffffffffffffffffffffff1681565b600260009054906101000a900473ffffffffffffffffffffffffffffffffffffffff1673ffffffffffffffffffffffffffffffffffffffff166323b872dd3330876040518463ffffffff1660e01b81526004016102719392919061063d565b600060405180830381600087803b15801561028b57600080fd5b505af115801561029f573d6000803e3d6000fd5b5050505060016004600086815260200190815260200160002060006101000a81548160ff021916908315150217905550826005600086815260200190815260200160002081905550806006600086815260200190815260200160002081905550816007600086815260200190815260200160002060006101000a81548173ffffffffffffffffffffffffffffffffffffffff021916908373ffffffffffffffffffffffffffffffffffffffff16021790555050505050565b60076020528060005260406000206000915054906101000a900473ffffffffffffffffffffffffffffffffffffffff1681565b600260009054906101000a900473ffffffffffffffffffffffffffffffffffffffff1681565b60066020528060005260406000206000915090505481565b60056020528060005260406000206000915090505481565b60008054906101000a900473ffffffffffffffffffffffffffffffffffffffff1681565b600160009054906101000a900473ffffffffffffffffffffffffffffffffffffffff1681565b60046020528060005260406000206000915054906101000a900460ff1681565b600073ffffffffffffffffffffffffffffffffffffffff82169050919050565b60006104758261044a565b9050919050565b6104858161046a565b82525050565b60006020820190506104a0600083018461047c565b92915050565b600080fd5b6000819050919050565b6104be816104ab565b81146104c957600080fd5b50565b6000813590506104db816104b5565b92915050565b60006104ec8261044a565b9050919050565b6104fc816104e1565b811461050757600080fd5b50565b600081359050610519816104f3565b92915050565b60008060008060808587031215610539576105386104a6565b5b6000610547878288016104cc565b9450506020610558878288016104cc565b93505060406105698782880161050a565b925050606061057a878288016104cc565b91505092959194509250565b60006020828403121561059c5761059b6104a6565b5b60006105aa848285016104cc565b91505092915050565b6105bc816104e1565b82525050565b60006020820190506105d760008301846105b3565b92915050565b6105e6816104ab565b82525050565b600060208201905061060160008301846105dd565b92915050565b60008115159050919050565b61061c81610607565b82525050565b60006020820190506106376000830184610613565b92915050565b600060608201905061065260008301866105b3565b61065f60208301856105b3565b61066c60408301846105dd565b94935050505056fea2646970667358221220d8b015862e0abb1a85016c29af4a01f29a12894fc33e613cce9e2134d3cd51f964736f6c63430008110033",
  "linkReferences": {},
  "deployedLinkReferences": {}
}